:100000000C946F000C9497000C9497000C9497003C
:100010000C9497000C9497000C9497000C94970004
:100020000C9497000C9497000C9497000C949700F4
:100030000C9497000C9497000C9497000C949700E4
:100040000C9406030C9497000C9475020C944F02C8
:100050000C9497000C9497000C9497000C949700C4
:100060000C9450030C949700084AD73B3BCE016E8A
:1000700084BCBFFDC12F3D6C74319ABD56833DDAFF
:100080003D00C77F11BED9E4BB4C3E916BAAAABE0E
:10009000000000803F0000000000250028002B0029
:1000A000040404040404040402020202020203031E
:1000B0000303030301020408102040800102040826
:1000C00010200102040810200000000800020100B6
:1000D000000304070000000000000000E10E1124EE
:1000E0001FBECFEFD8E0DEBFCDBF11E0A0E0B1E092
:1000F000EAE2F6E202C005900D92A437B107D9F703
:1001000023E0A4E7B1E001C01D92A03DB207E1F7F2
:1001100010E0CFE6D0E004C02197FE010E94CC0F92
:10012000CE36D107C9F70E947F090C9413130C94A3
:1001300000008091810290E020918202821B91094F
:100140000895CF92DF92EF92FF920F931F93CF9378
:10015000DF936C017A018B01C0E0D0E0CE15DF05A2
:1001600089F0D8016D918D01D601ED91FC9101903E
:10017000F081E02DC6010995892B11F47E0102C0A2
:100180002196ECCFC701DF91CF911F910F91FF9086
:10019000EF90DF90CF900895FC01918D828D98179C
:1001A00061F0828DDF01A80FB11D5D968C91928D5B
:1001B0009F5F9F73928F90E008958FEF9FEF089558
:1001C000FC01918D828D981731F0828DE80FF11D21
:1001D000858D90E008958FEF9FEF0895FC01918D3C
:1001E000228D892F90E0805C9F4F821B91098F7335
:1001F0009927089586EA92E00E94EE0021E0892B7B
:1002000009F420E0822F0895FC01848DDF01A80FFE
:10021000B11DA35ABF4F2C91848D90E001968F732E
:100220009927848FA689B7892C93A089B1898C914D
:1002300080648C93938D848D981306C00288F38913
:10024000E02D80818F7D80830895EF92FF920F9340
:100250001F93CF93DF93EC0181E0888F9B8D8C8D72
:10026000981305C0E889F989808185FD24C0F62EA0
:100270000B8D10E00F5F1F4F0F731127E02E8C8D39
:10028000E8120CC00FB607FCFACFE889F989808123
:1002900085FFF5CFCE010E940401F1CF8B8DFE01C9
:1002A000E80FF11DE35AFF4FF0820B8FEA89FB89BB
:1002B0008081806207C0EE89FF896083E889F989BF
:1002C00080818064808381E090E0DF91CF911F91F5
:1002D0000F91FF90EF900895CF93DF93EC01888DFD
:1002E0008823C9F0EA89FB89808185FD05C0A8893A
:1002F000B9898C9186FD0FC00FB607FCF5CF8081C0
:1003000085FFF2CFA889B9898C9185FFEDCFCE0109
:100310000E940401E7CFDF91CF91089580E090E043
:10032000892B29F00E94FA0081110C940000089595
:1003300085ED8093BC008091BC0084FDFCCF1092C1
:100340008002089540919601262F30E0240F311D40
:1003500021323105DCF4209180022430C9F4FC0103
:1003600080E090E0861758F4309196012191DC01ED
:10037000AC58BE4FA30FB11D2C930196F3CF8091C3
:100380009601680F6093960180E0089581E00895DA
:1003900082E008950895E091820280918102E81739
:1003A00030F4F0E0ED57FD4F808190E008958FEF3D
:1003B0009FEF08959091820280918102981750F4E6
:1003C000E92FF0E0ED57FD4F208130E09F5F9093E3
:1003D000820202C02FEF3FEFC9010895CF92DF9252
:1003E000EF92FF920F931F93CF93DF937C01262F01
:1003F000972F8A018091A502882391F0C62FD72FCD
:100400006E01C40ED51ECC15DD0571F06991D701C2
:10041000ED91FC910190F081E02DC7010995F3CF9A
:10042000642F822F0E94A201C801DF91CF911F91FA
:100430000F91FF90EF90DF90CF900895CF93DF93CF
:100440001F92CDB7DEB769832091A5022223D1F098
:100450002091A302203240F021E030E0FC01338300
:10046000228380E090E015C08091A402E82FF0E0A4
:10047000E65CFD4F998190838F5F8093A402809307
:10048000A30205C061E0CE0101960E94A20181E0B5
:1004900090E00F90DF91CF9108950E940E131F926C
:1004A0000F920FB60F9211242F933F934F935F93A8
:1004B0006F937F938F939F93AF93BF93EF93FF932C
:1004C00086EA92E00E940401FF91EF91BF91AF9103
:1004D0009F918F917F916F915F914F913F912F915C
:1004E0000F900FBE0F901F9018951F920F920FB68E
:1004F0000F9211242F938F939F93EF93FF93E0918B
:10050000B602F091B7028081E091BC02F091BD0289
:1005100082FD12C090818091BF028F5F8F73209106
:10052000C002821751F0E091BF02F0E0EA55FD4FA2
:10053000958F8093BF0201C08081FF91EF919F91C1
:100540008F912F910F900FBE0F901F9018953FB76E
:10055000F8948091C0019091C101A091C201B09125
:10056000C30126B5A89B05C02F3F19F00196A11D18
:10057000B11D3FBFBA2FA92F982F8827820F911D39
:10058000A11DB11DBC01CD0142E0660F771F881F80
:10059000991F4A95D1F708958F929F92AF92BF927B
:1005A000CF92DF92EF92FF926B017C010E94A70233
:1005B0004B015C01C114D104E104F104F1F00E948B
:1005C000A702DC01CB0188199909AA09BB09883E59
:1005D0009340A105B10570F321E0C21AD108E108EA
:1005E000F10888EE880E83E0981EA11CB11CC1148E
:1005F000D104E104F10419F7DDCFFF90EF90DF9013
:10060000CF90BF90AF909F908F9008951F920F92C0
:100610000FB60F9211242F933F938F939F93AF9315
:10062000BF938091BC019091BD01A091BE01B0919A
:10063000BF013091BB0123E0230F2D3720F4019639
:10064000A11DB11D05C026E8230F0296A11DB11DF5
:100650002093BB018093BC019093BD01A093BE0188
:10066000B093BF018091C0019091C101A091C201DE
:10067000B091C3010196A11DB11D8093C00190935B
:10068000C101A093C201B093C301BF91AF919F91EB
:100690008F913F912F910F900FBE0F901F90189543
:1006A0001F920F920FB60F9211242F933F934F93E7
:1006B0005F936F937F938F939F93AF93BF93EF93CA
:1006C000FF938091B900887F803609F49CC068F55B
:1006D000883209F45BC090F4803109F454C038F4D6
:1006E000882309F4F6C0883009F44DC0F6C088317B
:1006F00009F44CC0803209F45DC0EFC0803409F4C5
:1007000068C048F4803309F455C0883309F0E5C067
:1007100080937E02D8C0803509F44FC0883509F433
:100720005DC0883409F0D9C0D6C0883909F4C7C083
:10073000A8F4883709F467C038F4883609F463C030
:10074000803709F460C0C9C0883809F4B8C080395E
:1007500009F45FC0803809F0C0C05BC0803B09F479
:1007600086C038F4803A09F466C0883A09F47FC03C
:10077000B4C0803C09F4A7C0883C09F4A4C0883BFD
:1007800009F48AC0AAC080917B0210C090917D02BA
:1007900080917C02981770F5E0917D0281E08E0FC8
:1007A00080937D02F0E0E65AFD4F80818093BB008C
:1007B00085EC86C080937E028EC0E0917D0281E050
:1007C0008E0F80937D028091BB00F0E0E65AFD4FD2
:1007D000808390917D0280917C026EC0E0917D02C9
:1007E00081E08E0F80937D028091BB00F0E0E65A9D
:1007F000FD4F808380917F0281116DC081E08093E5
:100800007A0284EA61C083E0809380021092BA0188
:10081000CFCF8091BA01803208F051C0E091BA0187
:1008200081E08E0F8093BA018091BB00F0E0E65624
:10083000FE4F8083BDCF85EC8093BC001092800278
:100840008091BA01803230F4E091BA01F0E0E656CE
:10085000FE4F10826091BA0170E0E0919801F09132
:1008600099018AE991E009951092BA0136C084E0B5
:10087000809380021092970110929601E09194016A
:10088000F0919501099580919601811105C081E053
:100890008093960110927401E091970181E08E0F90
:1008A00080939701F0E0EC58FE4F80818093BB006D
:1008B0009091970180919601981708F479CF85E877
:1008C0008093BC000AC085EC8093BC00109280022B
:1008D00004C010927E020E949801FF91EF91BF9197
:1008E000AF919F918F917F916F915F914F913F91C8
:1008F0002F910F900FBE0F901F90189591E090933D
:10090000A50280938F031092A4021092A30208956F
:10091000909180029111FCCF613208F060E291E089
:100920009093800290937F022FEF20937E0210928B
:100930007D02260F20937C0290937B0290917B0294
:10094000880F892B80937B0280917A02813061F439
:1009500010927A0280917B028093BB008091BC0050
:1009600083FDF8CF85EC01C085EE8093BC008091BB
:1009700080028130E1F380917D02861710F460914E
:100980007D02AAE5B2E023E832E0F9018E2F821B56
:10099000861718F48D918193F9CF1092820260939B
:1009A0008102862F08952091A30290918F03213216
:1009B00008F04AC0809180028111FCCF32E0309370
:1009C000800231E030937F023FEF30937E0210923D
:1009D0007D0220937C02AAE3B2E04AE552E0FA01EC
:1009E0003E2F341B321718F43D913193F9CF1092FA
:1009F0007B0220917B02990F922B90937B02909126
:100A00007A02913061F410927A0290917B02909375
:100A1000BB009091BC0093FDF8CF95EC01C095EE22
:100A20009093BC00909180029230E1F390917E020D
:100A30009F3F79F080917E02803241F080917E026A
:100A4000803331F084E005C081E003C082E001C062
:100A500083E01092A4021092A3021092A5020895BE
:100A60006F927F928F929F92AF92BF92CF92DF92BE
:100A7000EF92FF920F931F93CF93DF938C0180919E
:100A800038020E947E0463E483E493E00E941E0225
:100A90000E94D304809138020E947E0466E070E0D8
:100AA00080913802909139020E94880480918102DD
:100AB00090E020918202821B910986309105ECF32F
:100AC00083E493E00E94DA01682E83E493E00E94BD
:100AD000DA01782E83E493E00E94DA01882E83E421
:100AE00093E00E94DA01982E83E493E00E94DA01F9
:100AF000A82E83E493E00E94DA01B82ED62CC12CF4
:100B0000B6016729072E000C880B990B0E9459111A
:100B10006093D8017093D9018093DA019093DB013F
:100B2000F82CE12CB7016929072E000C880B990BD2
:100B30000E9459116093DC017093DD018093DE0106
:100B40009093DF01DA2D80E0C82FBE016B29072EBC
:100B5000000C880B990B0E9459116093E00170936F
:100B6000E1018093E2019093E3018CE0E8EDF1E094
:100B7000D80101900D928A95E1F7C801DF91CF91DC
:100B80001F910F91FF90EF90DF90CF90BF90AF90AB
:100B90009F908F907F906F9008954F925F926F9289
:100BA0007F928F929F92AF92BF92CF92DF92EF92FD
:100BB000FF921F93CF93DF93CDB7DEB7A4970FB605
:100BC000F894DEBF0FBECDBF81E08093370212E301
:100BD00019A21AA21BA21CA21D8E1E8E1F8E18A265
:100BE000198E1A8E1B8E1C8EC12CD12C76014601BB
:100BF000570126013701CE0101960E9430058091F0
:100C0000D8019091D901A091DA01B091DB018D87D3
:100C10009E87AF87B88B9C01AD01C301B2010E94D2
:100C2000D30F2B013C018091DC019091DD01A0915B
:100C3000DE01B091DF01898B9A8BAB8BBC8B9C0161
:100C4000AD01C501B4010E94D30F4B015C0180913D
:100C5000E0019091E101A091E201B091E3018D8B5F
:100C60009E8BAF8BB88F9C01AD01C701B6010E946E
:100C7000D30F6B017C012D853E854F855889CA01B4
:100C8000B9010E943D129B01AC01698D7A8D8B8D5B
:100C90009C8D0E94D30F698F7A8F8B8F9C8F2989AF
:100CA0003A894B895C89CA01B9010E943D129B01B6
:100CB000AC016D8D7E8D8F8D98A10E94D30F6D8FAD
:100CC0007E8F8F8F98A32D893E894F89588DCA01B9
:100CD000B9010E943D129B01AC0169A17AA18BA1CF
:100CE0009CA10E94D30F69A37AA38BA39CA365E068
:100CF00070E080E090E00E94CC02115009F07BCFC0
:100D000020E030E048E452E4C301B2010E94B61092
:100D10002B013C01609308027093090280930A0240
:100D200090930B0220E030E048E452E4C501B401A6
:100D30000E94B6104B015C0160930C0270930D028F
:100D400080930E0290930F0220E030E048E452E4DA
:100D5000C701B6010E94B6106B017C0160931002BE
:100D600070931102809312029093130220E030E0FE
:100D700048E452E4698D7A8D8B8D9C8D0E94B6106B
:100D80006D877E878F87988BA3019201C301B20183
:100D90000E943D129B01AC016D857E858F859889EF
:100DA0000E94D20F0E94B012609314027093150239
:100DB000809316029093170220E030E048E452E45A
:100DC0006D8D7E8D8F8D98A10E94B6102B013C01F8
:100DD000A5019401C501B4010E943D129B01AC0123
:100DE000C301B2010E94D20F0E94B0126093180298
:100DF0007093190280931A0290931B0220E030E056
:100E000048E452E469A17AA18BA19CA10E94B6108A
:100E10004B015C01A7019601C701B6010E943D127A
:100E20009B01AC01C501B4010E94D20F0E94B01217
:100E300060931C0270931D0280931E0290931F0208
:100E4000C0903302D0903402E0903502F090360228
:100E500020E030E0A901C701B6010E943012181647
:100E60000CF079C0C701B6010E942811F62E662346
:100E700009F44BC080913702811102C00E94CD0558
:100E80006F2D70E080E090E00E9459114B015C01F1
:100E90009B01AC01609114027091150280911602C1
:100EA000909117020E943D126093FC017093FD0126
:100EB0008093FE019093FF01A501940160911802B7
:100EC0007091190280911A0290911B020E943D12AA
:100ED00060930002709301028093020290930302D8
:100EE000A501940160911C0270911D0280911E0267
:100EF00090911F020E943D126093040270930502BC
:100F0000809306029093070218C01092FC01109281
:100F1000FD011092FE011092FF011092000210924A
:100F20000102109202021092030210920402109227
:100F3000050210920602109207026F2D70E080E009
:100F400090E00E94571160933302709334028093B3
:100F5000350290933602A4960FB6F894DEBF0FBE0A
:100F6000CDBFDF91CF911F91FF90EF90DF90CF9099
:100F7000BF90AF909F908F907F906F905F904F90B9
:100F80000895CF93DF93D82FC62F809138020E9407
:100F90007E046D2F83E493E00E941E026C2F83E495
:100FA00093E00E941E02DF91CF910C94D3041F9313
:100FB000CF93DF931F92CDB7DEB7682F80913802B1
:100FC00069830E947E04698183E493E00E941E028B
:100FD0000E94D304809138020E947E0461E070E098
:100FE00080913802909139020E9488049091810288
:100FF000809182029817F1F383E493E00E94DA0172
:10100000182F0E94D304812F0F90DF91CF911F9151
:10101000089590E0FC01E853FF4F2491FC01EC544B
:10102000FF4F3491FC01E056FF4FE491EE23B1F104
:10103000222339F1233091F038F42130A9F0223005
:1010400001F584B58F7D12C0273091F02830A1F0D2
:101050002430B9F4809180008F7D03C0809180009E
:101060008F77809380000DC084B58F7784BD09C0D1
:101070008091B0008F7703C08091B0008F7D809306
:10108000B000F0E0EE0FFF1FEA56FF4FA591B491BC
:101090008FB7F894EC913E2B3C938FBF0895009747
:1010A00069F0FC0101900020E9F73197AF01481B7E
:1010B000590BBC0186EA92E00C94A10080E090E01C
:1010C00008958F929F92AF92BF920F931F93CF93E9
:1010D000DF93CDB7DEB7A1970FB6F894DEBF0FBE92
:1010E000CDBF19A2423008F44AE08E010F5D1F4FB8
:1010F000842E912CA12CB12CA50194010E94AA0F41
:10110000E62FB901CA0101501109EA3014F4E05D7B
:1011100001C0E95CD801EC93232B242B252B61F72C
:10112000C8010E944F08A1960FB6F894DEBF0FBE0B
:10113000CDBFDF91CF911F910F91BF90AF909F9046
:101140008F9008954F925F926F927F928F929F92AD
:10115000AF92BF92CF92DF92EF92FF926B017C0130
:10116000B42E9B01AC010E94F412882319F085E68D
:1011700091E027C026013701E89477F82FEF3FEF81
:101180004FE75FE7C301B2010E94F41281110DC065
:101190002FEF3FEF4FE75FE7C301B2010E94B110AD
:1011A00018161CF489E691E00CC02FEF3FEF4FE7D3
:1011B0005FE4C701B6010E943012181684F48DE670
:1011C00091E0FF90EF90DF90CF90BF90AF909F9015
:1011D0008F907F906F905F904F900C944F082FEFFF
:1011E0003FEF4FE75FECC701B6010E94B11087FDEA
:1011F000E6CF20E030E0A901C701B6010E94B1109E
:1012000087FF11C0E091A602F091A7020190F08142
:10121000E02D6DE286EA92E009954C01F7FAF09430
:10122000F7F8F09402C0812C912CA12C60E070E0C2
:1012300080E09FE3AB1441F020E030E040E251E475
:101240000E94B610A394F6CF9B01AC01C701B60172
:101250000E94D30F2B013C010E9428116B017C01DD
:101260000E9457119B01AC01C301B2010E94D20F31
:101270002B013C014AE0C701B6010E9461087C01D4
:10128000E80CF91CBB2031F081E791E00E944F0887
:10129000E80EF91EDB2CDD2021F120E030E040E2F9
:1012A00051E4C301B2010E943D122B013C010E9496
:1012B00028114B01A12CB12C4AE0C501B4010E94B8
:1012C0006108E80EF91EC501B4010E9457119B0187
:1012D000AC01C301B2010E94D20F2B013C01DA9490
:1012E000DACFC701FF90EF90DF90CF90BF90AF9023
:1012F0009F908F907F906F905F904F900895CF93C5
:10130000DF93CDB7DEB7AE970FB6F894DEBF0FBE52
:10131000CDBF789484B5826084BD84B5816084BD7E
:1013200085B5826085BD85B5816085BD80916E0083
:10133000816080936E0010928100809181008260B4
:1013400080938100809181008160809381008091F1
:1013500080008160809380008091B10084608093E0
:10136000B1008091B00081608093B00080917A00DC
:10137000846080937A0080917A00826080937A0002
:1013800080917A00816080937A0080917A008068F1
:1013900080937A001092C100E091B602F091B702FA
:1013A00082E08083E091B202F091B3021082E0917A
:1013B000B402F091B50280E180831092BE02E09108
:1013C000BA02F091BB0286E08083E091B802F0910E
:1013D000B902808180618083E091B802F091B90206
:1013E000808188608083E091B802F091B9028081A9
:1013F00080688083E091B802F091B90280818F7D8E
:10140000808380E291E00E944F0886E391E00E9491
:101410004F0888E6E82EF12CDD24D39498E4C92EF9
:1014200025E4B22EF0923902E09238021092820244
:10143000109281021092A4021092A30210928002D4
:10144000D0927F0210927A0282E10E94090883E121
:101450000E9409088091B9008E7F8093B900809125
:10146000B9008D7F8093B900C092B800B092BC00E3
:10147000109208021092090210920A0210920B02B6
:1014800010920C0210920D0210920E0210920F0296
:101490001092100210921102109212021092130276
:1014A000109237021092FC011092FD011092FE0181
:1014B0001092FF011092000210920102109202029B
:1014C000109203021092040210920502109206027A
:1014D00010920702109233021092340210923502D9
:1014E00010923602809138020E947E0465E783E400
:1014F00093E00E941E020E94D304809138020E9451
:101500007E0461E070E080913802909139020E947F
:10151000880483E493E00E94DA01A82E0E94D30499
:1015200088E6A8123FC48BE60E94D707887F682F01
:1015300061608BE60E94C1078CEE90ECA9E7BDE3E9
:1015400080932B0290932C02A0932D02B0932E0235
:101550008BE10E94D707682F68618BE10E94C10769
:1015600080E49AEDAFE7B8E380932F0290933002C6
:10157000A0933102B09332028CE10E94D707682F0A
:10158000677E8CE10E94C1078BE60E94D707682F17
:101590006F7B8BE60E94C1070E94CD0580913802C7
:1015A0000E947E046BE383E493E00E941E020E948B
:1015B000D304809138020E947E0466E070E080913E
:1015C0003802909139020E9488048091810290E053
:1015D00020918202821B910986309105ECF383E40D
:1015E00093E00E94DA01A82E83E493E00E94DA01DE
:1015F000B82E83E493E00E94DA01C82E83E493E0DE
:101600000E94DA01D82E83E493E00E94DA01E82EEA
:1016100083E493E00E94DA01F82EAE8E1D8E6D8D6C
:101620007E8D6B29072E000C880B990B0E94591197
:101630002B013C016093CC017093CD018093CE01CE
:101640009093CF013C2C212CB1016D29072E000C69
:10165000880B990B0E9459114B015C016093D001DA
:101660007093D1018093D2019093D3011E2D00E09D
:10167000B8016F29072E000C880B990B0E94591195
:101680006D877E878F87988B6093D4017093D50187
:101690008093D6019093D701C0902F02D090300252
:1016A000E0903102F0903202A7019601C301B2012D
:1016B0000E943D122AE038EE4CE151E40E943D12B6
:1016C0006093E4017093E5018093E6019093E70154
:1016D000A7019601C501B4010E943D122AE038EE2F
:1016E0004CE151E40E943D124B015C016093E80122
:1016F0007093E9018093EA019093EB01A7019601B1
:101700006D857E858F8598890E943D122AE038EE8E
:101710004CE151E40E943D126B017C016093EC01AD
:101720007093ED018093EE019093EF01CE0101964D
:101730000E9430058091370240902B0250902C027D
:1017400060902D0270902E02882309F451C02091E0
:1017500008023091090240910A0250910B026091F7
:10176000D8017091D9018091DA019091DB010E943A
:10177000D20FA30192010E943D126093F001709379
:10178000F1018093F2019093F30120910C023091CA
:101790000D0240910E0250910F026091DC01709198
:1017A000DD018091DE019091DF010E94D20FA30143
:1017B00092010E943D126093F4017093F5018093B1
:1017C000F6019093F701209110023091110240919F
:1017D0001202509113026091E0017091E101809139
:1017E000E2019091E3010E94D20FA301920132C065
:1017F000A30192016091D8017091D9018091DA0121
:101800009091DB010E943D126093F0017093F10111
:101810008093F2019093F301A30192016091DC01A6
:101820007091DD018091DE019091DF010E943D12F7
:101830006093F4017093F5018093F6019093F701A2
:10184000A30192016091E0017091E1018091E201B8
:101850009091E3010E943D126093F8017093F901A9
:101860008093FA019093FB0120E030E0A9016091A0
:1018700033027091340280913502909136020E94B9
:10188000B110882309F481C04090F0015090F1011B
:101890006090F2017090F30120E030E0A901C301F3
:1018A000B2010E943012181624F077FA709477F87B
:1018B00070942091FC013091FD014091FE01509106
:1018C000FF01C301B2010E94B11087FF08C010924E
:1018D000F0011092F1011092F2011092F301409088
:1018E000F4015090F5016090F6017090F70120E04E
:1018F00030E0A901C301B2010E943012181624F091
:1019000077FA709477F87094209100023091010278
:101910004091020250910302C301B2010E94B11032
:1019200087FF08C01092F4011092F5011092F601A1
:101930001092F7014090F8015090F9016090FA017F
:101940007090FB0120E030E0A901C301B2010E94C8
:101950003012181624F077FA709477F8709420916A
:101960000402309105024091060250910702C30122
:10197000B2010E94B11087FF08C01092F8011092C6
:10198000F9011092FA011092FB018091F0019091FF
:10199000F101A091F201B091F3018D8B9E8BAF8B81
:1019A000B88FA7019601C501B4010E94521020E032
:1019B00030E044E353E40E943D122BED3FE049E464
:1019C00050E40E94B6106F8F78A389A39AA3609306
:1019D000C8017093C9018093CA019093CB010E9402
:1019E000A7020E94571120918B0330918C034091E4
:1019F0008D0350918E030E94D20F20E034E244E721
:101A000059E40E94B6106B017C01609387037093C8
:101A100088038093890390938A0380915F03909158
:101A20006003A0916103B0916203898F9A8FAB8F9D
:101A3000BC8F9C01AD016D897E898F89988D0E9434
:101A4000D20F9B01AC016093630370936403809396
:101A5000650390936603C701B6010E943D12209171
:101A60005B0330915C0340915D0350915E030E94E3
:101A7000D30F6BA37CA38DA39EA3409073035090C0
:101A80007403609075037090760380916B0390915E
:101A90006C03A0916D03B0916E03898B9A8BAB8B15
:101AA000BC8B9C01AD01C301B2010E94D30F9B010D
:101AB000AC01C701B6010E943D124B015C012091AF
:101AC0004F03309150034091510350915203C7018D
:101AD000B6010E943D129B01AC01C501B4010E94F8
:101AE000D30F2091670330916803409169035091AF
:101AF0006A030E94D30F6D877E878F87988BA3011F
:101B00009201C701B6010E943D124B015C019B018D
:101B1000AC0169897A898B899C890E94D20F698B73
:101B20007A8B8B8B9C8BA501940160916F037091D4
:101B3000700380917103909172030E94D20F6FA382
:101B400078A789A79AA72091530330915403409115
:101B5000550350915603C701B6010E943D129B01E7
:101B6000AC01C301B2010E94D30F6BA77CA78DA764
:101B70009EA72091570330915803409159035091EB
:101B80005A036D857E858F8598890E94D30F6B01DE
:101B90007C0160937F037093800380938103909313
:101BA00082039B01AC016D857E858F8598890E949B
:101BB000B6104B015C0160937703709378038093B8
:101BC000790390937A03A70196016FA178A589A55F
:101BD0009AA50E94B6106B017C0160937B03709301
:101BE0007C0380937D0390937E032BA13CA14DA1A8
:101BF0005EA16F8D78A189A19AA10E94D20F2B01BD
:101C00003C016093830370938403809385039093D6
:101C100086039B01AC01C501B4010E943D129B01EA
:101C2000AC016BA17CA18DA19EA10E94D30F6093FA
:101C30005B0370935C0380935D0390935E03A30149
:101C40009201C701B6010E943D129B01AC01698D52
:101C50007A8D8B8D9C8D0E94D30F60935F03709360
:101C6000600380936103909362032D853E854F85C9
:101C70005889C501B4010E943D129B01AC016D85DC
:101C80007E858F8598890E94D20F2B013C0160933D
:101C90006703709368038093690390936A032989AB
:101CA0003A894B895C89C501B4010E943D129B01B0
:101CB000AC0169897A898B899C890E94D20F4B017A
:101CC0005C0160936B0370936C0380936D0390933E
:101CD0006E03A3019201C701B6010E943D129B0150
:101CE000AC016FA178A589A59AA50E94D20F609337
:101CF0006F03709370038093710390937203A50137
:101D00009401C701B6010E943D129B01AC016BA575
:101D10007CA58DA59EA50E94D20F6093730370933E
:101D2000740380937503909376030E94A7020E9428
:101D3000571160938B0370938C0380938D03909362
:101D40008E0380915B0390915C03A0915D03B09141
:101D50005E038093C4019093C501A093C601B09324
:101D6000C70189E391E00E944F0842E06D897E89B6
:101D70008F89988D0E94A20881E491E00E944F080B
:101D80006091C4017091C5018091C6019091C70115
:101D900042E00E94A20886E391E00E944F080E9460
:101DA0008E01FCCB8DE491E00E944F0886E391E028
:101DB0000E944F0864EF71E080E090E00E94CC0246
:101DC00031CB4F925F926F927F928F929F92AF92A0
:101DD000BF92CF92DF92EF92FF92CF93DF93E6EA2A
:101DE000F2E01382128288EE93E0A0E0B0E08483F8
:101DF0009583A683B78324E031E03183208325ECEB
:101E000030E03587248724EC30E03787268720ECC4
:101E100030E0318B208B21EC30E0338B228B22ECB5
:101E200030E0358B248B26EC30E0378B268B118EFF
:101E3000128E138E148EE3E4F3E0138212828483F5
:101E40009583A683B78384E191E091838083CFE477
:101E5000D3E08FE6482E82E1582E83E8682E8AE38D
:101E6000782E488259826A827B8296EA892E9BE983
:101E7000992E94E4A92E9BE3B92E8C829D82AE828A
:101E8000BF822FE8C22E22ECD22E25EFE22E2CE3C9
:101E9000F22EC886D986EA86FB861C861D861E869B
:101EA0001F86188A198A1A8A1B8A188E198E1A8E0A
:101EB0001B8E1C8E1D8E1E8E1F8E18A219A21AA29A
:101EC0001BA21CA21DA21EA21FA20E94A7020E946A
:101ED00057116CAF7DAF8EAF9FAFC0E9D3E04882A2
:101EE00059826A827B828C829D82AE82BF82C88642
:101EF000D986EA86FB861C861D861E861F86188A62
:101F0000198A1A8A1B8A188E198E1A8E1B8E1C8E9D
:101F10001D8E1E8E1F8E18A219A21AA21BA21CA211
:101F20001DA21EA21FA20E94A7020E9457116CAF01
:101F30007DAF8EAF9FAFDF91CF91FF90EF90DF909D
:101F4000CF90BF90AF909F908F907F906F905F9059
:101F50004F900895A1E21A2EAA1BBB1BFD010DC0D4
:101F6000AA1FBB1FEE1FFF1FA217B307E407F50749
:101F700020F0A21BB30BE40BF50B661F771F881F25
:101F8000991F1A9469F760957095809590959B01BB
:101F9000AC01BD01CF010895EE0FFF1F0590F49134
:101FA000E02D09945058BB27AA270E94EA0F0C94F1
:101FB000F6110E94E81138F00E94EF1120F039F478
:101FC0009F3F19F426F40C94BE110EF4E095E7FB44
:101FD0000C94B811E92F0E94071258F3BA17620740
:101FE00073078407950720F079F4A6F50C9429125D
:101FF0000EF4E0950B2EBA2FA02D0B01B901900124
:102000000C01CA01A0011124FF27591B99F0593F67
:1020100050F4503E68F11A16F040A22F232F342FAF
:102020004427585FF3CF469537952795A795F040FD
:102030005395C9F77EF41F16BA0B620B730B840B12
:10204000BAF09150A1F0FF0FBB1F661F771F881FCA
:10205000C2F70EC0BA0F621F731F841F48F4879522
:1020600077956795B795F7959E3F08F0B0CF939514
:10207000880F08F09927EE0F9795879508950E948D
:10208000E81160F080E891E009F49EEF0E94EF1102
:1020900028F040E851E071F45EEF0CC00C94BE11E2
:1020A0000C942912E92FE0780E94071240F3092EC0
:1020B000052AB1F3261737074807590738F00E2EBF
:1020C00007F8E02569F0E025E0640AC0EF6307F84F
:1020D000009407FADB01B9019D01DC01CA01AD01E1
:1020E000EF930E94CD100E94F6110E9482105F9122
:1020F000552339F02BED3FE049E450FD49EC0C94B9
:10210000D30F0895DF93DD27B92FBF7740E85FE352
:102110001616170648075B0718F4D92F0E943512C8
:102120009F938F937F936F930E94F012E8E6F0E005
:102130000E94C1110E94F6112F913F914F915F9122
:102140000E945012DD2351F09058A2EA2AED3FE0A0
:1021500049EC5FE3D0785D270E94EA0FDF910C9491
:10216000F6110E94941108F481E008950E94CA10AB
:102170000C94F6110E94EF1158F00E94E81140F003
:1021800029F45F3F29F00C94B81151110C942A12D4
:102190000C94BE110E94071268F39923B1F35523E2
:1021A00091F3951B550BBB27AA276217730784076A
:1021B00038F09F5F5F4F220F331F441FAA1FA9F300
:1021C00035D00E2E3AF0E0E832D091505040E695EE
:1021D000001CCAF72BD0FE2F29D0660F771F881F4F
:1021E000BB1F261737074807AB07B0E809F0BB0B42
:1021F000802DBF01FF2793585F4F3AF09E3F510556
:1022000078F00C94B8110C942A125F3FE4F3983ED6
:10221000D4F3869577956795B795F7959F5FC9F73E
:10222000880F911D9695879597F90895E1E0660FBF
:10223000771F881FBB1F621773078407BA0720F038
:10224000621B730B840BBA0BEE1F88F7E0950895A1
:102250000E940F1288F09F5798F0B92F9927B75115
:10226000B0F0E1F0660F771F881F991F1AF0BA953A
:10227000C9F714C0B13091F00E942912B1E008955D
:102280000C942912672F782F8827B85F39F0B93F4F
:10229000CCF3869577956795B395D9F73EF49095ED
:1022A0008095709561957F4F8F4F9F4F0895E8946B
:1022B00009C097FB3EF490958095709561957F4F8E
:1022C0008F4F9F4F9923A9F0F92F96E9BB2793953C
:1022D000F695879577956795B795F111F8CFFAF44C
:1022E000BB0F11F460FF1BC06F5F7F4F8F4F9F4F7D
:1022F00016C0882311F096E911C0772321F09EE8DB
:10230000872F762F05C0662371F096E8862F70E040
:1023100060E02AF09A95660F771F881FDAF7880F1A
:102320009695879597F90895990F0008550FAA0B70
:10233000E0E8FEEF16161706E807F907C0F01216D8
:102340001306E407F50798F0621B730B840B950BDB
:1023500039F40A2661F0232B242B252B21F4089530
:102360000A2609F4A140A6958FEF811D811D0895CD
:1023700097F99F6780E870E060E008959FEF80EC38
:102380000895DF93CF931F930F93FF92EF92DF9205
:102390007B018C01689406C0DA2EEF010E94501276
:1023A000FE01E894A5912591359145915591A6F3AB
:1023B000EF010E94EA0FFE019701A801DA9469F784
:1023C000DF90EF90FF900F911F91CF91DF910895D3
:1023D00000240A9416161706180609060895002404
:1023E0000A9412161306140605060895092E03947E
:1023F000000C11F4882352F0BB0F40F4BF2B11F4F2
:1024000060FF04C06F5F7F4F8F4F9F4F089557FD50
:102410009058440F551F59F05F3F71F04795880F52
:1024200097FB991F61F09F3F79F0879508951216E9
:1024300013061406551FF2CF4695F1DF08C0161695
:1024400017061806991FF1CF869571056105089446
:102450000895E894BB2766277727CB0197F908955D
:102460000E94941108F48FEF08959B01AC0160E085
:1024700070E080E89FE30C94B6100E9450120C9418
:10248000F6110E94E81138F00E94EF1120F0952318
:1024900011F00C94B8110C94BE1111240C942A1252
:1024A0000E94071270F3959FC1F3950F50E0551FDE
:1024B000629FF001729FBB27F00DB11D639FAA2799
:1024C000F00DB11DAA1F649F6627B00DA11D661FE8
:1024D000829F2227B00DA11D621F739FB00DA11D09
:1024E000621F839FA00D611D221F749F3327A00DC3
:1024F000611D231F849F600D211D822F762F6A2F5F
:1025000011249F5750409AF0F1F088234AF0EE0FC3
:10251000FF1FBB1F661F771F881F91505040A9F7F0
:102520009E3F510580F00C94B8110C942A125F3F25
:10253000E4F3983ED4F3869577956795B795F7952C
:10254000E7959F5FC1F7FE2B880F911D96958795A4
:1025500097F9089519F416F40C94BE110C94F9121D
:102560000E940F12B8F39923C9F3B6F39F57550B86
:1025700087FF0E9407130024A0E640EA90018058DC
:102580005695979528F4805C660F771F881F20F07A
:1025900026173707480730F4621B730B840B20297A
:1025A00031294A2BA69517940794202531254A27CF
:1025B00058F7660F771F881F20F026173707480740
:1025C00030F4620B730B840B200D311D411DA0955F
:1025D00081F7B901842F9158880F969587950895B2
:1025E0009B01AC010C943D120E949411880B990B35
:1025F00008959F3F31F0915020F487957795679526
:10260000B795880F911D9695879597F908959150E4
:102610005040660F771F881FD2F7089581E090E041
:0A262000F8940C941313F894FFCF04
:10262A00000000002501A100EE00CC00E0006C01D2
:10263A00000000001E02EE019900DA01CB01CA0176
:10264A00496E69636A616C697A61636A61204D5097
:10265A005536303530000D0A004759524F203D207B
:10266A000020284B29526F6C6C203D20004E696572
:10267A00207A6E616C657A696F6E6F204D5055369F
:10268A0030353021006E616E00696E66006F7666C5
:04269A00002E00000E
:00000001FF
